:020000040800F2
:10000000C0060020350200084D150008191300082D
:10001000491500082D0400087D15000800000000A7
:10002000000000000000000000000000551500085E
:10003000310400080000000051150008591500089F
:100040004F0200084F0200084F0200084F0200084C
:100050004F0200084F0200084F0200084F0200083C
:100060004F0200084F0200084F0200084F0200082C
:100070004F0200084F0200084F0200084F0200081C
:100080004F0200084F0200084F0200080000000065
:100090000000000000000000000000004F02000807
:1000A0004F020008711500084F0200084F020008B7
:1000B0004F0200084F0200084F0200084F020008DC
:1000C0004F0200084F0200084F0200084F020008CC
:1000D0004F0200084F0200084F0200080000000015
:1000E0004F0200084F0200084F0200080000000005
:1000F0000000000000000000000000004F020008A7
:10010000000000004F0200084F0200084F020008E4
:1001100000000000000000000000000000000000DF
:100120004F0200084F0200084F0200084F0200086B
:100130004F02000800000000000000000000000066
:100140000000000000000000000000004F02000856
:100150004F0200084F0200084F0200084F0200083B
:100160004F0200084F0200080000000000000000DD
:10017000000000000000000000000000000000007F
:10018000000000004F020008000000000000000016
:100190004F02000800F002F800F03CF80AA090E8D6
:1001A000000C82448344AAF10107DA4501D100F032
:1001B00031F8AFF2090EBAE80F0013F0010F18BFC3
:1001C000FB1A43F001031847A8160000C8160000E8
:1001D000103A24BF78C878C1FAD8520724BF30C873
:1001E00030C144BF04680C60704700000023002445
:1001F00000250026103A28BF78C1FBD8520728BF37
:1002000030C148BF0B6070471FB501F01CFB1FBD1C
:1002100010B510BD00F0D0F81146FFF7F5FF01F062
:10022000AFF900F0EEF803B4FFF7F2FF03BC00F003
:10023000F5F800000948804709480047FEE7FEE757
:10024000FEE7FEE7FEE7FEE7FEE7FEE7FEE7FEE786
:1002500004480549054A064B704700005D15000833
:1002600095010008C0000020C0060020C002002048
:10027000C002002053EA020C00F069802DE9F04B27
:100280004FF00006002B1FBFB3FA83F503FA05F405
:1002900024FA05F65E4012BF1643B2FA82F502FA5E
:1002A00005F4C5F120051EBF22FA05FC44EA0C0442
:1002B000203556EA044C4FEA144418BF641C4FF032
:1002C00000084FF00009904271EB030C39D300296C
:1002D00019BFB1FA81F701FA07F6B0FA80F700FA10
:1002E00007F6C7F120071EBF20FA07FC46EA0C06F6
:1002F0002037B6FBF4FCA7EB0507103F07F01F0BF8
:10030000CBF120062CFA06F60CFA0BFB44BFB346E1
:100310000026202FA4BF5E464FF0000B5BEA060CC0
:1003200008BF4FF0010B19EB0B0948EB0608ABFBBC
:10033000027C06FB02CC0BFB03CCC01B71EB0C0157
:10034000C1E70B46024641464846BDE8F08B13B56F
:10035000084318BF4FF0FF300146AFF30080BDE8FF
:100360001C4070474FF0000200B513469446964675
:10037000203922BFA0E80C50A0E80C50B1F12001B8
:10038000BFF4F7AF090728BFA0E80C5048BF0CC066
:100390005DF804EB890028BF40F8042B08BF7047C4
:1003A00048BF20F8022B11F0804F18BF00F8012B36
:1003B0007047704770477047754600F02BF8AE469F
:1003C00005006946534620F00700854618B020B561
:1003D000FFF73EFFBDE820404FF000064FF000075A
:1003E0004FF000084FF0000BAC46ACE8C009ACE899
:1003F000C009ACE8C009ACE8C00921F007018D468E
:10040000704710B50446AFF300802046BDE81040A9
:10041000FFF709BF0048704710000020014918206D
:10042000ABBEFEE72600020070470000FEE70000BA
:1004300070470000B0B5044600F0F0F8054640F201
:100440000000C2F200000078611C18BF044400BF25
:1004500000F0E4F8401BA042FAD3B0BD2DE9F04F04
:1004600082B000F13E4241F2000502F1FF77C4F292
:100470000205072243F6004E4FEAB726A84208BFFE
:100480000422C4F2010E042E38BF4FEAB722012520
:10049000002600274FF00008009208E008F101084C
:1004A0000437B8F1100F06F1020600F0A7800C68BF
:1004B00005FA08F914EA090FF0D0D1F804B00322C4
:1004C0000BF0030CACF10104B240012C6FEA020AFC
:1004D00010D88268CC6802EA0A02B44022438260E3
:1004E0004268CBF3001422EA090204FA08F422431A
:1004F000426005E0BCF1030F02D14FF0030C20E095
:10050000C2688C6802EA0A02B4402243BCF1020FBE
:10051000C26016D16FF0030202EA58020244D2F818
:1005200020C007F01C050F230C69AB402CEA030325
:1005300004FA05F52B431362D1F804B001250BF042
:10054000030C02680CFA06F302EA0A021A431BF4CF
:10055000403F0260A2D0002243F644030192C4F25D
:1005600002031A684FF6084C42F480421A601A6877
:10057000CFF6FF7C02F480420192019A28F0030238
:10058000724452F80C3007F00C050F24AC40A34322
:10059000009C04FA05F52B4342F80C30DEF80820E5
:1005A0004B6842EA090543F60C4CDC0258BF22EACC
:1005B0000905CEF80850C4F2010CDCF800209C02BA
:1005C00042EA090558BF22EA0905CCF80050DEF8D6
:1005D00004209C0342EA090558BF22EA0905CEF827
:1005E0000450DEF80020DB0342EA090558BF22EA86
:1005F0000905CEF80050012550E700BF02B0BDE864
:10060000F08F00000069084018BF0120704700000B
:10061000002A08BF090481617047000040F2BC0055
:10062000C2F200000068704740F2000040F2BC01D6
:10063000C2F20000C2F2000100780A6810440860AB
:100640007047000080B543F60040C4F20200016824
:1006500041F400710160016841F48061016001684A
:1006600041F480710160032000F088F80F2000F051
:1006700005F800F027F8002080BD000070B540F2BA
:100680000006C2F2000640F208013278C2F2000110
:100690004FF47A730968B3FBF2F20446B1FBF2F14E
:1006A000084600F01BFB0F2C4FF0010508D838B9A5
:1006B0004FF0FF3021460022002500F033F874602F
:1006C000284670BD82B0002043F640010190C4F27C
:1006D00002014A6842F480424A604A6802F4804259
:1006E0000192019A0090086840F080500860086804
:1006F00000F080500090009802B07047002848BF7A
:100700007047C1B200F01F00012202FA00F04EF261
:100710000012CEF2000242EAD10121F0030108608A
:100720007047000010B54EF60C5CCEF2000CDCF801
:100730000030C3F3022E8EF00704042C28BF0424DB
:10074000BEF103034FF0FF3E0EFA04F438BF00235E
:10075000A14399400EFA03F39A43114300F00F02AC
:1007600000F160430901043A03F564436244002840
:1007700048BF02F10C03197010BD00004EF60C5179
:10078000CEF200010A684FF6FF031A4060F30A2216
:1007900042F0806040F0FD70086070472DE9F04144
:1007A000002800F08B8043F60808C4F202080446D3
:1007B000D8F8F8030D4600F00700884207D288F801
:1007C000F853D8F8F80300F00700A84276D1206863
:1007D000810717D5410705D5D8F8001041F4E0513D
:1007E000C8F80010010705D5D8F8001041F46041A1
:1007F000C8F80010D8F80010A26821F0F0011143E9
:10080000C8F80010C0073FD1D8F8F80300F007007F
:10081000A84207D988F8F853D8F8F80300F0070081
:10082000A8424BD12068410707D5D8F80010E268EC
:1008300021F4E0511143C8F80010000708D5D8F89A
:100840000000216920F4604040EAC100C8F80000BF
:1008500000F054F8D8F8001041F66002C1F303111B
:10086000C0F60002515C40F2080220FA01F140F2A9
:100870000400C2F200000068C2F200021160FFF73B
:10088000FDFE0020BDE8F0816068811E022907D2CC
:1008900058F8081C89015CBF0120BDE8F08111E017
:1008A000012807D158F8081C89035CBF0120BDE866
:1008B000F08107E058F8081C890703D40120BDE83F
:1008C000F08100BFD8F8001021F003010843C8F8F8
:1008D0000000FFF7A3FE064641F28837D8F8000073
:1008E000616800F00C00B0EB810F8DD0FFF796FE31
:1008F000801BB842F2D90320BDE8F08110B543F661
:100900000404C4F20204606800F00C0008280BD054
:10091000042819BF42F20040C0F2F40047F640003C
:10092000C0F27D1010BD00BF206821682368490215
:1009300047F64001C0F27D1100F03F02C3F388107A
:100940005CBF42F20041C0F2F401A1FB00010023B0
:10095000FFF790FC21680222C1F3014102EB410143
:10096000B0FBF1F010BD00002DE9F04182B000288D
:1009700068D00446007843F60006C007C4F20206B9
:100980000BD0B06800F00C00042840F09F80306865
:10099000800302D56068002854D0207880071AD5DB
:1009A000B06810F00C0F09D0B06800F00C000828F7
:1009B00040F0A6807068400200F1A2803068800795
:1009C00002D5E06801283DD13068216920F0F800A7
:1009D00040EAC10030602078000737D42078400713
:1009E0004CD4A56955B3B06800F00C00082840F05D
:1009F000BB80012D26D07068E16900F480028A4234
:100A000020D1216A00F03F028A421BD147F6C07113
:100A1000626A0140B1EB821F14D1A16A4FF6FF73E5
:100A2000C903994300F44032A1F580318A4209D1CB
:100A3000E16A00F07060B0EB016F03D1002002B0FA
:100A4000BDE8F081012002B0BDE8F08160690028B6
:100A500040F20000C4F2472076D00121C0F8801E89
:100A6000FFF7DCFD054600BF706F8007B6D4FFF7C7
:100A7000D5FD401B0228F7D9DDE000BF306C10F037
:100A800080580AD100200190306C40F080503064D2
:100A9000306C00F080500190019847F20007C4F2DA
:100AA00000073868C00541D4386840F48070386069
:100AB000FFF7B4FD054600BF3868C00536D4FFF720
:100AC000ADFD401B0228F7D9B5E000BFB06800F0CB
:100AD0000C00082803D1706840023FF558AF6068E9
:100AE000B0F5803F07D0B0F5A02F40F08D80306882
:100AF00040F480203060306840F4803030608DE019
:100B0000E068002852D00020C4F247200121016093
:100B1000FFF784FD054600BF306880073FF554AFFE
:100B2000FFF77CFD401B0228F6D984E0A06801286D
:100B300005D005284ED1306F40F004003067306F8B
:100B400040F0010030674FE00021C0F8801EFFF741
:100B500065FD0546706F80077FF540AFFFF75EFDCE
:100B6000401B0228F6D966E00027C4F24727002080
:100B70003866FFF753FD022D05460BD13068800122
:100B80005ED5FFF74BFD401B02284FF00300F5D95F
:100B900055E700BF306880017FF550AFFFF73EFD9D
:100BA000401B02284FF00300F4D948E70020C4F2AC
:100BB000472000210160FFF731FD054630688007BE
:100BC0007FF509AFFFF72AFD401B02284FF0030015
:100BD000F4D934E7316F002821F001013167316F1A
:100BE00021F0040131674DD0FFF718FD054641F2B1
:100BF000883700BF306F800756D4FFF70FFD401BCA
:100C0000B842F7D917E000BF3168002821F48031DD
:100C10003160316821F4802131604FD0FFF7FEFC54
:100C2000054600BF306880033FF5B7AEFFF7F6FC1E
:100C3000401B6428F6D9032002B0BDE8F08100BF54
:100C400004F11C052FCD084340EA8210D9034FF66A
:100C5000FF729143A1F5803140EA0560084370605E
:100C600001203866FFF7DAFC044600BF30688001D7
:100C70003FF5E4AEFFF7D2FC001B02284FF0030063
:100C8000F4D9DCE6FFF7CAFC054641F2883700BF1D
:100C9000306F800708D5FFF7C1FC401BB8424FF00A
:100CA0000300F5D9CBE600BFB8F1000F7FF499AE91
:100CB000306C20F08050306493E600BFFFF7AEFC4C
:100CC000054600BF306880037FF567AEFFF7A6FCDE
:100CD000401B64284FF00300F4D9B0E6411E002009
:100CE000B0EB116F1CBF012070474EF21002CEF224
:100CF000000251604EF62351CEF20001F0230B703A
:100D00000721906011607047704700007047000035
:100D100010B590F83C20012A4FF002023ED080F836
:100D20003D200268D2F804E0D2F808C00C682EF02A
:100D30007003234340F6FF34C4F20004A242536020
:100D400010DCB2F1804F1ED040F20043C4F2000329
:100D50009A4218D040F60003C4F200039A4212D01F
:100D600016E000BF40F60043C4F200039A420AD0E6
:100D700044F20003C4F201039A4204D00023C4F2F7
:100D800001039A4204D149682CF080031943916011
:100D90000121002280F83D1080F83C20104610BD53
:100DA000002804BF0120704710B5044690F83D00AC
:100DB00028B9002084F83C00204600F08FF802207B
:100DC00084F83D00206840F2FF730268C4F200031B
:100DD00040F2000C9842C4F2010C1DDD40F6000107
:100DE000C4F20001884220D060451ED040F6004188
:100DF000C4F20001884218D04FF6FF71C4F200011E
:100E000088421CDC984225DCB0F1804F3AD040F299
:100E10000041C4F2000133E0B0F1804F05D040F250
:100E20000041C4F200018842E6D1A16822F07002BC
:100E30000A434FF6FF71C4F200018842E2DD44F23A
:100E4000FF31C4F20101884210DC60451AD044F23F
:100E5000000113E040F60001C4F20001884211D005
:100E600040F60041C4F200010AE000BF44F6000170
:100E7000C4F20101884205D044F20041C4F20101EC
:100E8000884203D1216922F440720A43A36922F007
:100E90008001D4F804E0E268194360450160C26251
:100EA000C0F828E002D16169CCF83010012141611D
:100EB000002084F8461084F83E1084F83F1084F82F
:100EC000401084F8411084F8421084F8431084F8EC
:100ED000441084F8451084F83D1010BD80B582B0F0
:100EE00000680021C4F2010188421CBF02B080BD2D
:100EF0000020019043F64400C4F202000168002281
:100F000041F0010101600068002100F00100019042
:100F100001981920FFF706FC192002B0BDE88040B7
:100F2000FFF7ECBB90F83D1001291CBF0120704772
:100F3000022180F83D10006840F6FF32C168C4F21B
:100F40000002904241F00101C1600FDCB0F1804F1E
:100F50001DD040F20041C4F20001884217D040F693
:100F60000001C4F20001884211D017E040F60041B0
:100F7000C4F2000188420AD044F20001C4F2010127
:100F8000884204D00021C4F20101884206D1816860
:100F900001F00701062904BF00207047016841F0F5
:100FA000010101600020704780B590F83C20012AC3
:100FB0004FF0020200F0C28080F83D20D0F800C05F
:100FC0004FF67772DCF8083023EA0202CCF80820EA
:100FD0000B684F2B28DC1F2B44DD202B45D0302BFA
:100FE00043D0402B40F0AC80D1F804E0C968DCF875
:100FF0002030DCF8202022F00102CCF82020DCF8A0
:10100000182022F0F00242EA011123F00A0242EA1B
:101010000E02CCF81810CCF82020DCF8081041F0B3
:10102000470121F0300180E06F2B27DDB3F5005F31
:1010300048D0B3F5805F7AD0702B40F08180D1E941
:1010400001E3C968DCF8082043EA0E0322F47F427A
:1010500043EA01211143CCF80810DCF8081041F0F4
:10106000770162E00BB1102B6AD1DCF8081021F097
:101070007001194341F0070157E000BF502B35D0F4
:10108000602B5DD1D1F804E0C968DCF8203023F092
:101090001003CCF82030DCF81830DCF8202023F4E2
:1010A000704322F0A00243EA013142EA0E12CCF86A
:1010B0001810CCF82020DCF8081041F0670121F06E
:1010C000100132E0D1E901E3C968DCF8082043EA05
:1010D0000E0322F47F4243EA01211143CCF80810A9
:1010E000DCF8081041F480411FE000BFD1F804E0B3
:1010F000C968DCF82030DCF8202022F00102CCF8AE
:101100002020DCF8182022F0F00242EA011123F03E
:101110000A0242EA0E02CCF81810CCF82020DCF8C3
:10112000081041F0570121F02001CCF808100022EE
:10113000012180F83D10002180F83C10104680BD50
:101140000122F5E77047000010B501680446086900
:10115000800744BFC8685FEA807039D408694007D7
:1011600044BFC8685FEA40703ED40869000744BFC6
:10117000C8685FEA007045D40869C00644BFC86803
:101180005FEAC0604AD40869C0071CBFC8685FEA4C
:10119000C07051D10869000644BFC8685FEA0060AA
:1011A00052D40869400644BFC8685FEA406053D41F
:1011B0000869800646BFC8685FEA806010BD6FF0AE
:1011C000200220460A61BDE81040FFF79FBD00BF26
:1011D0006FF002000861012020778869800743D002
:1011E0002046FFF7AFFF45E06FF0040008610220E2
:1011F0002077886910F4407F40D02046FFF7A2FF97
:1012000042E000BF6FF00800086104202077C86941
:1012100080073DD02046FFF795FF3FE06FF01000BC
:10122000086108202077C86910F4407F3AD0204632
:10123000FFF788FF3CE000BF6FF001000861204627
:1012400000F03EF82168A5E76FF0800008612046B5
:10125000FFF75AFD2168A4E76FF0400008612046BF
:1012600000F058F82168A3E7204600F025F8204652
:1012700000F024F82168002020776FE7204600F076
:101280001BF8204600F01AF82168002020776CE750
:10129000204600F011F8204600F010F821680020E8
:1012A000207769E7204600F007F8204600F006F8AE
:1012B00021680020207766E7704700007047000033
:1012C000B0B540F27001C2F200010431884218BF8B
:1012D000B0BD40F20044C4F2020404F54065284663
:1012E00002210022FFF794F9284602210122FFF78C
:1012F0008FF900BF204608210022FFF789F9204618
:101300001021FFF77FF9204608210122FFF780F91D
:10131000F0E7000070470000FEE7000010B50F2066
:10132000FFF788F840F60044C4F20204204680210A
:101330000022FFF76DF9204640210022FFF768F9EF
:10134000204608210022FFF763F9204604210022ED
:10135000FFF75EF9204602212022FFF759F92046C7
:1013600001211022FFF754F9204620210122FFF726
:101370004FF9204620210022FFF74AF90520FFF708
:1013800059F8204640210022FFF742F92046082163
:101390000022FFF73DF9204604210022FFF738F92B
:1013A000204602212022FFF733F920460121102296
:1013B000FFF72EF9204620210122FFF729F92046C8
:1013C00020210022FFF724F90120FFF733F82046FF
:1013D00040210022FFF71CF9204608210022FFF7D8
:1013E00017F9204604210022FFF712F920460221B6
:1013F0002022FFF70DF9204601211022FFF708F9FE
:10140000204620210122FFF703F920462021002257
:10141000FFF7FEF80120FFF70DF8204640210022DB
:10142000FFF7F6F8204608210022FFF7F1F82046E2
:1014300004210022FFF7ECF8204602212022FFF7CA
:10144000E7F8204601210022FFF7E2F8204620219C
:101450000122FFF7DDF8204620210022FFF7D8F80F
:101460000120FEF7E7FF282000F00EF8082000F02A
:101470000BF8012000F008F8062000F005F80D2018
:10148000BDE81040AFF30080F0B581B040F60044F5
:10149000C4F2020405462046402100224026FFF700
:1014A000B7F805F0800220460821FFF7B1F805F0F3
:1014B000400220460421FFF7ABF805F02002204649
:1014C0000221FFF7A5F805F0100220460121FFF7E1
:1014D0009FF82046202101222027FFF799F8204677
:1014E00020210022FFF794F8204640210022FFF738
:1014F0008FF8802000EA051220460821FFF788F8BF
:1015000006EA051220460421FFF782F807EA0512D1
:1015100020460221FFF77CF8102000EA0512204641
:101520000121FFF775F8204620210122FFF770F80E
:10153000204620210022FFF76BF8012001B0BDE812
:10154000F040FEF777BF0000FEE70000FEE7000076
:101550007047000070470000FFF766B84EF68850ED
:10156000CEF20000016841F4700101607047000094
:1015700040F27400C2F20000FFF7E6BDFEE7000093
:1015800094B043F6300740F20044C4F20207C4F2BC
:101590000204FFF757F808AD281D2C21FEF7E2FEE4
:1015A00000260696CDE90466CDE902660196386903
:1015B000022240F080503861386900F0805001907C
:1015C000019846F600400196CFF6FE70215862F36E
:1015D0008F312150205800F44040019001980120A3
:1015E0000B9010200C90284608920E96FFF7BCF93D
:1015F00020B1EFF3108072B6FEE700BF0F20CDE9F7
:10160000020602A80021CDE904660696FFF7C6F897
:1016100020B1EFF3108072B6FEE700BF0026CDE9DF
:101620000B660296386804F5006B40F010003860D5
:10163000386840F6FF7100F01000029002980296A0
:101640003868002240F004003860386840F6FF79BE
:1016500000F00400029002980296386840F0800082
:101660003860386800F0800002900298029638686E
:1016700040F001003860386800F0010002900298E4
:101680000296386840F002003860386800F00200C6
:10169000029002980296386840F008003860386876
:1016A00000F00800029002985846FEF7B1FFA4F53A
:1016B000806A50464FF4C0610022FEF7A9FF204621
:1016C00028210022FEF7A4FF04F5406840460321CC
:1016D00000220325FEF79CFF4FF6FC7008A908AF17
:1016E00061C140463946FEF7B9FE4FF6FF7008A9C2
:1016F00061C104F580603946FEF7B0FE04F5C050C4
:101700003946CDE908550A96FEF7A8FE49F6FF10BE
:1017100008A961C150463946FEF7A0FE4FF2C770D6
:1017200008A961C120463946FEF798FECDF8209001
:101730004FF0010958463946CDE909960B96FEF758
:101740008DFE4FF4704008A961C158463946FEF736
:1017500085FE4FF4C060CDE9080950463946CDE911
:101760000A66FEF77BFE2820CDE9080920463946A7
:10177000CDE90A66FEF772FE102008A981E8410251
:1017800020463946FEF76AFE40463946CDE90859FB
:10179000CDE90A66FEF762FE40F27007C2F200076A
:1017A000A4F58231384640F8041F40F2E7310F2299
:1017B0000B96CDE90966CDE90266C0E90126C0E9CC
:1017C0000316C0E90566FFF7EBFA28B1EFF31080C6
:1017D00072B600BFFEE700BF4FF480503D1D089079
:1017E00008A92846FFF7E0FB20B1EFF3108072B69E
:1017F000FEE700BF02A92846FFF78AFA20B1EFF3FF
:10180000108072B6FEE700BF404602210122FEF7BB
:10181000FFFE204608210022FEF7FAFE2846FFF7C9
:1018200081FBFFF77BFDF87801280BD1012000BF79
:101830000128FDD10120FEF7FDFD0120FEF7FAFD94
:10184000F878F5E7FEE7F1EE100A4FF6FF71C0F207
:10185000C03120EA010040F04070E1EE100A70470C
:101860000000000000000000010203040607080950
:10187000901800080000002010000000D0010008AF
:10188000A018000810000020B0060000EC010008BD
:1018900001000000100000000024F400000000001F
:040000050800019559
:00000001FF
